:020000040800F2
:10000000280600209D0100089F280008B12500084F
:100010009D28000895090008ED2E0008000000004A
:10002000000000000000000000000000A3280008FD
:10003000690B000800000000A1280008E52900085D
:10004000B7010008B7010008B7010008B7010008B0
:10005000B7010008B7010008B7010008B7010008A0
:10006000B7010008B7010008B7010008B701000890
:10007000B7010008B90A0008B7010008B701000875
:10008000B7010008B701000861080008B7010008BF
:10009000B7010008B7010008B7010008B701000860
:1000A000B7010008B7010008B7010008B701000850
:1000B000B7010008892A0008B7010008B701000845
:1000C000B7010008B7010008B7010008B701000830
:1000D000B7010008B7010008B7010008B701000820
:1000E000B7010008B7010008B7010008B701000810
:1000F000B7010008B7010008B7010008B701000800
:10010000B7010008B7010008952A0008B7010008E8
:10011000B7010008B7010008B7010008B7010008DF
:10012000B7010008B7010008B7010008B7010008CF
:10013000B7010008B7010008B7010008B7010008BF
:10014000B7010008B7010008B7010008B7010008AF
:10015000B7010008B7010008B7010008B70100089F
:10016000B7010008B7010008B7010008B70100088F
:10017000B7010008B7010008B7010008000000003F
:10018000B7010008B7010008DFF80CD000F056FBFB
:100190000048004715380008280600200648804718
:1001A00006480047FEE7FEE7FEE7FEE7FEE7FEE75C
:1001B000FEE7FEE7FEE7FEE76D2A0008890100087A
:1001C0002DE9F05F0546002092469B46884606468C
:1001D000814640241BE0284641464746224600F01F
:1001E0005EFA53465A46C01A914110D3114618463A
:1001F000224600F045FA2D1A67EB01084F462246C9
:100200000120002100F03CFA17EB00094E41201EAE
:10021000A4F10104DFDC484631462A464346BDE8E6
:10022000F09FD2B201E000F8012B491EFBD27047CB
:100230000022F6E710B513460A4604461946FFF7B2
:10024000F0FF204610BD421C10F8011B0029FBD115
:10025000801A704710B5002200E0521C835C8C5C51
:10026000A34201D1002BF8D1D8B2E1B2401A10BD9F
:100270002DE9FE4F804681EA0300C00F0C46009036
:1002800021F0004123F00045B8EB0200A94105D25E
:100290004046214690461C460B46024623F000404D
:1002A000104347D0270DC7F30A00C3F30A51029049
:1002B000401A019040286BDAC3F3130040F4801B0E
:1002C0000098924620B10023D2EB030A63EB0B0B9C
:1002D00001985946C0F14002504600F0D1F9064657
:1002E0000D4650465946019A00F0E9F910EB080016
:1002F0006141002487EA115284EAE7731A4340D02F
:10030000009A62B3019A012A4FEA075215DC001BDA
:1003100061EB02014FF0004202EA0752CDE90042D0
:10032000001C41F5801132462B4600F020FA03B044
:10033000BDE8F08F40462146F9E7001B61EB020162
:10034000001C41F5801300185B412018A2F500172E
:1003500047EB030140EAD570B6196D4111E06D0815
:100360004FEA360645EAC0754FEA0752001B61EBBB
:100370000201001C41F5801149084FEA30000019C4
:10038000514132462B4603B0BDE8F04F00F0E0B9D2
:100390000098012240000023D0EB020263EBE073DF
:1003A000009821464FEAE074B8EB000061EB0401CD
:1003B000E9E783F000435BE781F0004158E72DE96E
:1003C000FE4F81EA030404F0004421F00041009450
:1003D0004FF0000B23F0004350EA01045ED052EAD4
:1003E00003045BD0C3F30A54C1F30A552C44A4F2AE
:1003F000F3340194A0FB0254C1F3130141F48011C2
:10040000C3F3130343F4801301FB024400FB034EC8
:10041000840A970A44EA815447EA8357A4FB076891
:1004200002958D0A05FB07854FEA932C04FB0C54BB
:100430002705029D4FEA065847EA1637B5EB08052F
:100440006EEB070C870E920E47EA811742EA831281
:10045000A7FB0201B6EB0B0164EB00042B0D43EA92
:100460000C335E1844EB1C50DA465146E7FB0201A0
:10047000C5F313044FEA0B3343EA14534FEA043233
:10048000019C43EA0603A4F10C040294009CCDE90C
:1004900000B400F06CF903B0BDE8F08F0020014615
:1004A000F9E72DE9F04D81EA030404F0004B21F057
:1004B000004514464FF0000A23F0004150EA0502BF
:1004C00020D054EA01021DD0C5F30A570246C5F3F5
:1004D0001303C1F31300C1F30A5640F4801543F42B
:1004E0008013A7EB0608101BD64608F2FD3873EB05
:1004F000050002D308F1010801E092185B41B8F150
:10050000000F03DA00200146BDE8F08D00204FF413
:100510008011064684460EE0171B73EB050705D3D2
:10052000121B63EB050306434CEA010C49084FEA32
:10053000300092185B4150EA0107EDD152EA030006
:1005400012D082EA040083EA0501084305D0101B9B
:10055000AB4106D20122002306E000224FF0004307
:1005600002E06FF0010253101AEB06004CEB085149
:1005700010EB0A0041EB0B01BDE8F04D00F0E8B8CC
:100580000EB5C10F80EAE0700844CA07002140F2AE
:1005900033438DE80E000A460B4600F0E8F803B03E
:1005A00000BD0EB540F2334102910021CDE90011AA
:1005B0000A460B4600F0DBF803B000BD30B5041E60
:1005C00071F1000404DB4FF00044404264EB010190
:1005D000141E73F1000405DB1C464FF00043524229
:1005E00063EB04038B4208BF824230BD30B5041E6A
:1005F00071F1000404DB4FF00044404264EB010160
:10060000141E73F1000405DB1C464FF000435242F8
:1006100063EB0403994208BF904230BD01F00043F0
:1006200030B421F0004150EA010206D00A0DA2F5D3
:100630006072C1F31301002A02DC30BC0020704755
:10064000440F44EAC104C100E01830BC00EBC250C2
:1006500000F047B830B50B460146002020220124A7
:1006600009E021FA02F59D4205D303FA02F5491B80
:1006700004FA02F52844151EA2F10102F1DC30BD96
:10068000202A04DB203A00FA02F100207047914052
:10069000C2F1200320FA03F3194390407047202A47
:1006A00004DB203A21FA02F00021704721FA02F31C
:1006B000D040C2F120029140084319467047202AD9
:1006C00006DBCB17203A41FA02F043EAE07306E07A
:1006D00041FA02F3D040C2F120029140084319468A
:1006E00070470029A8BF7047401C490008BF20F090
:1006F0000100704710B4B0FA80FC00FA0CF050EA28
:10070000010404BF10BC704749B1CCF1200421FAA8
:1007100004F411FA0CF118BF012121430843A3EBA3
:100720000C01CB1D4FEA00614FEA102042BF0020B0
:1007300010BC704700EBC35010440029A4BF10BC8C
:100740007047401C490008BF20F0010010BC7047F2
:1007500010B5141E73F1000408DA401C41F10001C9
:1007600092185B411A4301D120F0010010BD2DE920
:10077000F04D92469B4611B1B1FA81F202E0B0FA17
:1007800080F220329046FFF77BFF04460F4640EA96
:100790000A0041EA0B0153465A46084313D011465A
:1007A00053EA010019D0C8F140025046FFF777FF25
:1007B00005460E46504659464246FFF761FF08433C
:1007C00005D0012004E020463946BDE8F08D002028
:1007D000054346EAE0762C4337430A986305E40A6A
:1007E000A0EB08000022FD0A44EA47540A3002D573
:1007F00000200146E9E7010510196941DDE90845D6
:1008000000196941BDE8F04DA2E7C1F30A52C1F3F6
:10081000130140F2FF3341F480119A4202DA0020C2
:100820000146704740F233439A42A2F2334202DC5F
:100830005242FFF734BFFFF723BF0000064C074DBD
:1008400006E0E06840F0010394E8070098471034A0
:10085000AC42F6D3FFF79CFC403B0008603B00082D
:10086000014800F05DBA000080000020464910B544
:100870004A6822F440324A604A6843681A434A6030
:1008800001684A6822F480724A6001684A68036914
:1008900042EA03224A6001684A6822F040724A60D4
:1008A00001684A6883681A434A6001688A6822F4CA
:1008B00000628A6001688A68C3681A438A60816A34
:1008C0006FF07062D14201688A6822F070628A60BB
:1008D00001688A680CD0836A1A438A6001688A6852
:1008E00022F040528A6001688A68C36A1A4301E0B4
:1008F00022F040528A6001688A6822F002028A600F
:1009000001688A68037E42EA43028A6090F82010F8
:10091000002901684A680FD042F400624A60016809
:100920004A6822F460424A6001684A68174C436A88
:1009300004EB43331A4301E022F400624A60016889
:10094000CA6A22F47002CA620168CA6A838B104CB8
:1009500004EB03531A43CA6201688A6822F40072E6
:100960008A6001688A6890F8303042EA43228A60DF
:1009700001688A6822F480628A6001688A68406936
:1009800042EA8020886010BD0023014000E0FFFFA4
:100990000000F0FFFEE7000010B58EB0254926A04C
:1009A000FFF758FC264C20B3224926A0FFF752FC43
:1009B00008B3204928A0FFF74DFC60B31D486FF035
:1009C0002F02417B007B303800EB800002EB4000BF
:1009D0000A1826A16846626202F08AFA6846FFF7A2
:1009E00032FC82B214236946264801F084FD0EB021
:1009F00010BD01200DE024A1684602F079FA684696
:100A0000FFF721FC82B2142369461E4801F073FDF2
:100A10000220E061EBE722A1684602F069FA68462D
:100A2000FFF711FC82B214236946164801F063FDFA
:100A30000320EEE76C0000205374617475730000AE
:100A4000000000205475726E206F6E204175746F27
:100A5000204D6F64650000005475726E206F6666ED
:100A6000204175746F204D6F6465000054656D7092
:100A70002073657420746F20256420646567200AE4
:100A800000000000880100204175746F204D6F64E4
:100A900065207475726E6564206F6E200A00000018
:100AA0004175746F204D6F6465207475726E656456
:100AB000206F6666200A0000014800F0AFBA00000F
:100AC000C801002001681823CAB2103AB2FBF3F241
:100AD000054B6FF30901032A9B5CC36500D9091D0F
:100AE0008165084670470000203B000810B50146AC
:100AF00000208B698A6A4FF0C07453B1B3F5005F70
:100B000015D072B1012A0CD0022A0AD0032A09D1C9
:100B100004E01AB1012A06D0022A03D1C96AC90128
:100B200000D5012010BDC96AA142FAD010BD002A2B
:100B3000F7D0012AF2D0022AF3D0032AF3D010BD55
:100B400030B50468256825F4802525600468636055
:100B50008368402B036803D099600068C26030BD91
:100B60009A600068C16030BD7047704770470000F0
:100B700078B50024009490F83C20012A19D0012275
:100B800080F83C200A6807230568092A13D9EE6813
:100B90000A3A02EB420293409E43EE600B788A6869
:100BA0000A3B03EB43039A400368DD682A43DA609B
:100BB00010E0022078BD2E6902EB420293409E4372
:100BC0002E610B788A6803EB43039A4003681D6922
:100BD0002A431A614A681F23072A13D205686E6BDD
:100BE000521E02EB820293409E436E630B790A8889
:100BF0005B1E92B203EB83039A4003685D6B2A434A
:100C00005A6327E005680D2A12D22E6BD21F02EB21
:100C1000820293409E432E630B790A88DB1F92B2B7
:100C200003EB83039A4003681D6B2A431A6311E0A8
:100C3000EE6A0D3A02EB820293409E43EE620B791C
:100C40000A880D3B92B203EB83039A400368DD6A86
:100C50002A43DA62164B0568144A9D4206D10D6894
:100C6000122D03D1556845F48005556005689D42F5
:100C700018D10B68102B01D0112B13D1536843F4FA
:100C800000035360096810290CD10A490A4A09680F
:100C9000B1FBF2F101EB8101490000E0491E009136
:100CA0000029FBD180F83C40002078BD00230140A2
:100CB000002001405400002040420F0010B500F019
:100CC0002CF80E4C80B22080FFF76BFC9FED0C1BC4
:100CD00053EC112BFFF7E5FB9FED0B1B53EC112B96
:100CE000FFF76DFB9FED0A1B53EC112BFFF7D9FBB0
:100CF00041EC100B84ED100B10BD00000000002033
:100D00000000000000FEAF400000000000D0A64040
:100D1000000000000000244070470068C06C70476D
:100D200070B50446006801684268C1F34001C2F32F
:100D3000401251B34AB3216CC90603D4216C41F46B
:100D400000712164816811F0405F17D1217EA9B93B
:100D5000C16A11F4700F02D0816849050ED4416850
:100D600021F020014160206C20F480702064206C10
:100D7000C00403D4206C40F0010020642046FFF73B
:100D80009DFF21686FF012000860206801684268CA
:100D9000C1F38001C2F3C01289B382B3216CC906CA
:100DA00003D4216C41F400512164816811F4401F87
:100DB0001ED1816B11F4401F02D08168490517D400
:100DC0004168490514D4816811F0405F10D1217E3B
:100DD00071B9416821F080014160206C20F480509D
:100DE0002064206CC00503D4206C40F00100206416
:100DF0002046FFF7BBFE21686FF00C0008602068FA
:100E00000168426811F0010FC2F380120ED06AB17E
:100E10000068C0070AD0206C40F48030206420466F
:100E200000F046F821686FF0010008602068016852
:100E30004268C1F34011C2F3806200290DD0002A3C
:100E40000BD0616C41F0020161646FF02005056018
:100E50002046FFF761FF2068056070BD70B5040093
:100E60004FF0000503D0206C002610B107E00120F0
:100E700070BD204600F01EF8666484F83C60206C6B
:100E8000C00610D4206C20F4885040F0020020648A
:100E90002046FFF7EBFC6664206C20F0020040F077
:100EA0000100206400E0012584F83C60284670BD04
:100EB0007047000010B586B0044614216846FFF75D
:100EC000B7F915492068884224D1144800210268E6
:100ED00042F480720260006800F4807005900F4850
:100EE0001438026842F001020260006800F001005C
:100EF0000590102000900320CDE9010169460848C3
:100F000000F010FA00221146122000F05DFB1220C2
:100F100000F04CFB06B010BD0020014044380240F8
:100F20000000024018B50021009190F83C20012AF1
:100F300007D0012280F83C2002689368DB0702D0CA
:100F400011E0022018BD936843F0010393602C4A1E
:100F50002C4B1268B2FBF3F202EB420200E0521E8D
:100F60000092002AFBD102689368DB0746D0036C2D
:100F700040F20164A34343F48073036453685B0548
:100F800005D5036C23F4005343F480530364036CCE
:100F9000DB0404D5436C23F00603436400E04164A2
:100FA00080F83C10184B6FF02201116001684A680C
:100FB000164C22434A6059680068CA06144906D094
:100FC00088421BD1816811F0405F13D016E088423F
:100FD000F8D0104A904203D1D1F80423D206F1D0C0
:100FE0000D4A90420AD1D1F8041301F01F011029D3
:100FF000E8D303E0816841F080418160002018BDA2
:101000005400002040420F00002301402000000453
:101010000020014000210140002201402DE9F84359
:1010200004464FF00009CDF8009063484FF4165184
:10103000A56D0068B0FBF1F72E6894F85C100820ED
:1010400000FA01F131420FD021680A6852070BD52E
:101050000A6822F004020A6094F85C108840A860D4
:10106000606D40F00100606594F85C104FF001087D
:1010700008FA01F0304208D021684969090604D510
:10108000A860606D40F00200606594F85C10042078
:101090008840304208D021680968890704D5A860D3
:1010A000606D40F00400606594F85C10102088408A
:1010B000304218D021680968090714D5A860206853
:1010C0000168490304D50068000308D5A16C07E056
:1010D0000168C90503D4016821F008010160216C91
:1010E00009B12046884794F85C102020884030429F
:1010F00031D021680968C9062DD5A86094F835005B
:1011000005282068016806D0490347D50068000318
:101110001DD4616C1CE021F016010160206841695A
:1011200021F080014161206C08B9A06C20B12068D9
:10113000016821F00801016094F85C103F208840AC
:10114000A86084F8349084F83580216D1FE0E16B4D
:1011500009B120468847606D00282BD0606DC0071C
:1011600014D0052084F835002068016821F00101C1
:1011700001600098401C0090B84203D820680068C5
:10118000C007F6D184F8349084F83580E16C0029EA
:1011900010D001B02046BDE8F04308470168C905FA
:1011A000D5D4016821F01001016084F8349084F8EE
:1011B0003580CCE7BDE8F883540000202DE9F041EC
:1011C000044600F091F906465CB1002584F83450DD
:1011D000022084F835002068016821F001010160D7
:1011E0000DE00120BDE8F08100F07EF9801B0528AC
:1011F00005D920206065032084F83500F2E72068D7
:101200000068C007F0D12268116820480140D4E985
:1012100001031843D4E90336334318436369184381
:10122000A3691843E3691843236A18430843616AB2
:10123000042903D1D4E90B13194308431060206833
:101240004069666A20F0070130460E4301270428F2
:101250000CD1A06A0643E06A40B12046FFF746FC85
:1012600020B14020606584F83570BAE72068466197
:101270002046FFF727FC94F85C203F2191408160D5
:10128000656584F835700020ACE700003F8010F001
:101290002DE9F0410446866D90F8340000250128C0
:1012A0000DD0012084F8340094F835700020012F0F
:1012B00007D084F8340002252846BDE8F0810220DA
:1012C000FBE7022784F8357060652046FFF738FC9D
:1012D00094F85C103F208840B0602068016841F0BD
:1012E00016010160206C20B12068016841F00801FE
:1012F00001602068016841F001010160DCE7000045
:1013000070B5044600F0F0F80546601C02D00448B1
:101310000078044400F0E8F8401BA042FAD370BD06
:10132000480000202DE9F84F00224FF00108032566
:101330004FF00F0E0B6808FA02F42340A3426ED15F
:101340004E68012E05D0022E03D0112E01D0122E90
:1013500012D186684FEA420C05FA0CF7BE43CF68FB
:1013600007FA0CF7374387604668A6430C79C4F345
:101370000014944034434460C668570005FA07FCE3
:101380008C6826EA0C06BC403443C4604C68022CCE
:1013900001D0122C13D1D40800EB8404A346D4F856
:1013A000209054074FEAD46A0EFA0AF629EA060991
:1013B0000E6906FA0AF646EA0906CBF820600668C6
:1013C0000C7926EA0C0604F00304BC4034430460A4
:1013D0004C68E40065D5364C266846F480462660A5
:1013E000246822F0030604F480440094314C344411
:1013F000A446D4F808489607370F0EFA07F6B44308
:101400002D4EB04201D1002624E02C4EB04201D135
:1014100001261FE02A4EB04202D102261AE040E027
:10142000284EB04201D1032614E0274EB04201D12C
:1014300004260FE0254EB04201D105260AE0244ED5
:10144000B04201D1062605E0224EB04201D1072666
:1014500000E00826BE402643CCF808681E4E3468DB
:101460004F689C43FF0300D51C4334601A4C241D75
:1014700026684F689E43BF0300D51E432660164E64
:10148000083634684F689C43FF0200D51C43346023
:10149000114E0C3634684F689C43BF0200D51C4384
:1014A0003460521C102AFFF445AFBDE8F88F0000ED
:1014B0004438024000300140000002400004024075
:1014C00000080240000C02400010024000140240DC
:1014D00000180240001C0240003C01400AB181613A
:1014E00070470904FBE7000001488068704700006E
:1014F00048000020024881680278114481607047EA
:10150000480000200B4810B5016841F400710160EB
:10151000016841F480610160016841F480710160FB
:10152000032000F071F8002000F006F800F024F825
:10153000002010BD003C024070B50D4D04464FF434
:101540007A712878B1FBF0F00A490968B1FBF0F034
:1015500000F004FB48B9102C07D200222146501E8F
:1015600000F032F800206C6070BD012070BD0000FA
:1015700048000020540000200B4882B0016841F46C
:1015800080410160006800F4804000900648001F20
:10159000016841F080510160006800F080500090C7
:1015A000072002B000F030B844380240002809DBC0
:1015B00000F01F02012191404009800000F1E0206D
:1015C000C0F8001170470000F0B40E4B1B680C46C9
:1015D000C3F30223C3F10705042D00D90425191D07
:1015E000072901D2002300E0DB1E012606FA05F1DF
:1015F000491E214099409E40761E16403143F0BC62
:1016000001F08ABC0CED00E0064900F00702086812
:101610004FF6FF03184040EA0220034A10430860D7
:10162000704700000CED00E00000FA052DE9F047DE
:101630000E46050065D0DFF81481D8F80000F7B237
:1016400000F00F00B04207D288F80070D8F8000010
:1016500000F00F00B04254D128683D4C810712D5EC
:10166000400703D5206840F4E05020602878000748
:1016700003D5206840F4604020602068A96820F00D
:10168000F000084320602878C0072DD030496868F2
:101690000839012812D0022813D0032811D0096874
:1016A000890700292DDA216821F003010143216017
:1016B000FFF71AFF814641F2883A0EE00968890374
:1016C000EFE709688901ECE7FFF70EFFA0EB0901DE
:1016D000514502D90320BDE8F0872068696800F011
:1016E0000C00B0EB810FEFD1D8F80010404601F0AC
:1016F0000F01B14207D90770006800F00F00B04237
:1017000001D00120E7E72878400705D52068E9687F
:1017100020F4E050084320602878000706D52068B0
:10172000296920F4604040EAC100206000F038F8E8
:101730002168084AC1F30311515CC840064908609A
:1017400006480068FFF7F8FE0020C4E7003C0240AE
:1017500008380240283B0008540000204C000020BC
:101760000448054900680968044AC1F38221515CB4
:10177000C84070475400002008380240383B000839
:101780000448054900680968044AC1F34231515CC4
:10179000C84070475400002008380240383B000819
:1017A000154810B5006810F00C02144813D0411011
:1017B000042A0FD0082A0ED10F4C241F2268236858
:1017C00002F03F025B0207D52068C0F38810A0FB3F
:1017D000010106E0084610BD2168C1F38811A1FB94
:1017E00000010023FEF7ECFC2168C1F30141491C14
:1017F0004900B0FBF1F010BD083802400024F400AD
:101800002DE9F84F04006ED02078DFF83C93C00734
:10181000A9F104054AD009F104000168C1F381016E
:10182000012908D00068C0F3810002280AD1D9F844
:101830000000400206D52868800337D5606800287C
:10184000E1D033E06068B0F5803F10D0B0F5A02F54
:10185000286810D020F480302860286820F4802088
:1018600028606068A8B1FFF73FFE06460DE02868D3
:1018700040F48030F4E740F480202860F7E700BFB0
:10188000FFF732FE801B642873D828688003F7D5E1
:101890000CE0FFF729FE064605E000BFFFF724FE37
:1018A000801B6428F0D828688003F7D42078DFF8FC
:1018B0009C8280074FF0000A3ED5A348001D0168B6
:1018C00011F00C0F08D00068C0F3810002280BD182
:1018D000D9F80000400207D42868800716D5E068D0
:1018E000012800D112E02BE1E068B8B10120C8F86E
:1018F0000000FFF7F9FD064605E000BFFFF7F4FD25
:10190000801B0228C0D828688007F7D5286821697D
:1019100020F0F80040EAC10028600DE0C8F800A0FF
:10192000FFF7E2FD064604E0FFF7DEFD801B02281C
:101930001FD828688007F7D42078000722D5824E68
:1019400083486169703671B101210160FFF7CCFDF8
:10195000074604E0FFF7C8FDC01B022809D830681D
:101960008007F7D50EE0C0F800A0FFF7BDFD0746E1
:1019700005E082E0FFF7B8FDC01B02287DD8306883
:101980008007F7D42078400768D5DFF8BCB100277E
:101990000BF13C0BDBF80000C0000BD4DBF80010AF
:1019A00041F08051CBF80010DBF80000012700F077
:1019B00080500090674E3068C00510D4306840F405
:1019C00080703060FFF790FD009005E0FFF78CFD20
:1019D0000099401A022850D83068C005F6D55A4EF2
:1019E000A0686C3601280FD00528306810D020F090
:1019F00001003060306820F004003060A068B8B1A9
:101A0000FFF772FD00900FE0306840F00100F4E74E
:101A100040F004003060F7E7FFF766FD0099411AD7
:101A200041F28830814266D830688007F4D50EE0F4
:101A3000FFF75AFD009007E0FFF756FD0099411AA5
:101A400041F28830814256D830688007F4D42FB1F3
:101A5000DBF8001021F08051CBF80010A069C8B36A
:101A60003949091D0968C1F3810102294AD00228B8
:101A7000504607D0C8F8600000E03CE0FFF734FDB6
:101A800004463BE04746C8F86000FFF72DFD0646D8
:101A900005E000BFFFF728FD801B02282BD828682F
:101AA0008001F7D4D4E907010843A16A2A4A49080A
:101AB00002EB0141626A41EA8211084394F82C105A
:101AC00040EA0161C9F8001001203866FFF70CFDFB
:101AD000044606E036E000BFFFF706FD001B0228C3
:101AE00009D828688001F7D52CE000BFFFF7FCFC7F
:101AF000001B022802D90320BDE8F88F2868800166
:101B0000F4D41FE00128F7D0D9F80000E26900F40E
:101B10008001914214D1226A00F03F0191420FD11D
:101B200047F6C071626A0140914209D1A26A00F48D
:101B30004031914204D1E16A00F07060884201D0E6
:101B40000120D9E70020D7E70438024000004742CF
:101B5000800E4742007000400000FFFF10B5401E9D
:101B6000B0F1807F01D3012010BD4FF0E02460610F
:101B70000F21601701F0D0F90020A061072020613B
:101B8000002010BD7047704770B590F83C20012AC6
:101B900032D0012480F83C40022280F83D200368C6
:101BA0005A689D6822F070060A6832435A60134BE7
:101BB00002689A4214D0B2F1804F11D0104B9A4271
:101BC0000ED0104B9A420BD00F4B9A4208D00F4BBD
:101BD0009A4205D00E4B9A4202D00E4B9A4204D143
:101BE000496825F080031943916080F83D40002149
:101BF00080F83C10084670BD022070BD0000014016
:101C00000004004000080040000C004000040140B7
:101C1000004001400018004010B5040003D094F8C3
:101C20003D0010B107E0012010BD002084F83C0009
:101C3000204600F00DF8022084F83D00211D2068A8
:101C400000F02EFF012084F83D00002010BD0000B0
:101C500008B501681048B1F1804F14D00F4A914285
:101C600019D1016841F0020101600068002200F012
:101C70000200009011461D20FFF7A6FCBDE80840B9
:101C80001D20FFF793BC016841F00101016000686D
:101C900000F00100009008BD403802400004004000
:101CA000022180F83D1001688A6802F00702062AC6
:101CB00003D00A6842F001020A60012180F83D1059
:101CC000002070470168CA6842F00102CA600068DB
:101CD000816801F00701062903D0016841F0010184
:101CE0000160002070470168CA6822F00102CA60E2
:101CF0000068016A41F21112114207D1016A921083
:101D0000114203D1016821F00101016000207047F8
:101D100070B5044690F83C00012817D0012584F8DE
:101D20003C50022084F83D002068826822F077024F
:101D300022F47F4282600868502830D00DDC2028D1
:101D40004DD005DC98B310283BD148E0022070BD8F
:101D5000302844D0402834D139E0602828D0702879
:101D600006D0B0F5805F2CD0B0F5005F29D10AE035
:101D7000CB68D1E90121206800F003FF2068816869
:101D800041F0770109E0CB68D1E90121206800F03A
:101D9000F8FE2068816841F48041816011E0CA68E2
:101DA0004968206800F0FFFE5021206807E016E037
:101DB000CA684968206800F047FF6021206800F089
:101DC000EAFE84F83D50002084F83C0070BDCA68EB
:101DD0004968206800F0E7FE40212068EFE72268AC
:101DE00001461046EBE7000070B5264C264D2DED60
:101DF000048B606878B101281ED10021284600F0CC
:101E00005DFAE062A16A9FED219B9FED228B8842E3
:101E100015D9401A15E000211B4800F04FFAA062C6
:101E2000012060602868016A21F00A0101622868C7
:101E3000016A41F002010162BDEC048B70BDC9432F
:101E40000844FEF7AEFB53EC192BFEF7B8FA53EC3F
:101E5000182BFEF7B4FA41EC100B002084ED0E0BAA
:101E600060602868016A21F00A0101622868016A3D
:101E700001620021BDEC048BBDE87040024800F017
:101E80001CB9000000000020480100209CC420B0C4
:101E90007268A13F000000000000E03F2DE9F04122
:101EA000044690F83C000D4601283DD0012684F8F8
:101EB0003C60022084F83D00AAB3042A46D0206882
:101EC000082A55D0D5E90027E968036A23F480532E
:101ED0000362D0F81CC0036A2CF4407C4CEA07274C
:101EE0004FF6FF7C27F470470CEA013139434FF479
:101EF000204723F4204307EA02321A43C1610262F9
:101F00002068C16921F44061C1612068C169AA6883
:101F100041EA0221C0F81C1084F83D60002084F8DA
:101F20003C00BDE8F08101E00220FAE7D5E90012AB
:101F3000EB68206800F048FE2068816921F00C0100
:101F4000816120688169AA6811430FE0D5E9001218
:101F5000EB68206800F08AFE2068816921F4406106
:101F6000816120688169AA6841EA02218161D3E721
:101F7000D5E9002C2F7B016A21F480710162C169CF
:101F8000036A21F0030141EA0C0121F0F00C39074A
:101F90004FF420674CEA116123F4206307EA022220
:101FA0001A43C16102622068C16921F00C01C1615C
:101FB0002068C169AA681143ACE710B5040003D0DA
:101FC00094F83D0010B107E0012010BD002084F816
:101FD0003C00204600F00CF8022084F83D00211D52
:101FE000206800F05DFD012084F83D00002010BD58
:101FF00010B586B0044614216846FEF719F9164953
:102000002068884226D115480021026842F0080263
:102010000260006800F0080005901048103802685F
:1020200042F001020260006800F00100059001200A
:1020300000900220CDE90101CDE90310694608486E
:10204000FFF770F9002211463220FFF7BDFA322067
:10205000FFF7ACFA06B010BD000C0040403802405B
:102060000000024010B50268044631B1042908D0CE
:1020700008291AD00C2908D11BE0D06840F00200D2
:1020800002E0D06840F00400D0600122206800F037
:102090006BFD2068816801F00701062903D0016803
:1020A00041F001010160002010BDD06840F008003F
:1020B000EAE7D06840F01000E6E710B50268044691
:1020C00031B1042908D008291ED00C2908D11FE0FD
:1020D000D06820F0020002E0D06820F00400D06058
:1020E0000022206800F040FD2068016A41F21112D0
:1020F000114207D1016A9210114203D1016821F007
:1021000001010160002010BDD06820F00800E6E762
:10211000D06820F01000E2E770B50446006801695D
:102120004FF00005C943890715D4C168C943890721
:1021300011D4E91E016101202077206880698007A1
:10214000204602D0FFF750FE04E000F098F8204649
:1021500000F096F8257720680169C943490717D42C
:10216000C168C943490713D46FF00401016102201B
:1021700020772068806910F4407F204602D0FFF766
:1021800033FE04E000F07BF8204600F079F8257774
:1021900020680169C943090716D4C168C943090702
:1021A00012D46FF008010161042020772068C06913
:1021B0008007204602D0FFF717FE04E000F05FF82A
:1021C000204600F05DF8257720680169C943C906FB
:1021D00017D4C168C943C90613D46FF01001016157
:1021E000082020772068C06910F4407F204602D084
:1021F000FFF7FAFD04E000F042F8204600F040F856
:10220000257720680169C943C90708D1C168C94356
:10221000C90704D1891E0161204600F033F8206807
:102220000169C943090609D4C168C943090605D42F
:102230006FF0800101612046FFF7A4FC206801696E
:10224000C943490609D4C168C943490605D46FF09A
:1022500040010161204600F046F820680169C94349
:1022600089060BD4C168C943890607D46FF02001E1
:1022700001612046BDE87040FFF785BC70BD704726
:102280007047000010B50068084988420DD100224F
:1022900004210748FFF722F900210648FFF7E2FE74
:1022A000BDE810400448FFF71EBD10BD000400400B
:1022B00000100240480100200801002002460020D2
:1022C00041B1042909D008290AD00C2901D110688C
:1022D000006C70471068406B70471068806B7047E7
:1022E0001068C06B70477047704770B5040004D029
:1022F00094F83900002510B106E0012070BD84F883
:102300003850204600F022F8242084F83900206854
:10231000C16821F40051C160204600F021FD206811
:10232000016921F4904101612068416921F02A018D
:1023300041612068C16841F40051C160E56320201B
:1023400084F8390084F83A00002070BD2DE9F04788
:1023500086B0064614216846FDF76AFF29493068B1
:1023600088424BD128480025016841F400210160D2
:102370000068254900F4002010390590086840F0F5
:1023800001000860086800F001000590086840F04E
:10239000040008600868022400F004004FF00809F7
:1023A0000094CDE9049001AA01274FF0030882E8C8
:1023B000900169461548FEF7B5FF4FF4806A01AAFF
:1023C000CDF800A082E8900369461148FEF7AAFF05
:1023D000114C104820604005C4E90105C4E9035AC6
:1023E000C0146561C4E90650256220466562FEF7A7
:1023F000E5FE08B1FEF7B9FB7463A66306B0BDE85D
:10240000F0870000004C00404038024000000240CD
:102410000008024040600240C8010020F8B50446B0
:1024200090F83A0020283CD1C1B3BAB394F83800F0
:10243000012836D0012084F83800A162A285002549
:10244000E563222084F83A00636B1748D863636B16
:1024500016481864636B1648D864606B13460565AC
:102460000846666B216802463046091DFEF710FFDC
:10247000206801684168009184F83850C16841F4CF
:102480008071C1602068416941F0010141612068AB
:10249000416941F0400141610020F8BDFFE70120A2
:1024A000FBE70220F9E70000ED2C0008292D0008C9
:1024B000A32C00080D4A30B40D4B916929B90020B6
:1024C0000A241C54401C1428FBDB094814380078EB
:1024D0000A2804D05854491C916130BC7047002030
:1024E0005854906130BCFEF757BA0000000000203D
:1024F0006C00002070472DE9F843044690F839003D
:102500001F4616460D46202850D1B5B1AEB194F8FD
:10251000380001284AD0012084F838004FF0000824
:10252000C4F83C80212084F83900FEF7DDFFA68442
:102530008146E68484F8388026E00120BDE8F883EF
:10254000E08C401EE084A0684B46B0F5805F4FF001
:1025500000024FF080012046009703D000F094FC69
:10256000E8B90DE000F090FCC8B928882168C0F3F4
:1025700008004860206908B16D1C05E0AD1C03E04F
:10258000216815F8010B4860E08C0028D8D14B4633
:10259000002240212046009700F076FC08B103207D
:1025A000CCE7202084F839000020C7E70220C5E7E7
:1025B000FEE700007FB500241648009401940294C1
:1025C0001349039401604FF48031C0E901140461A0
:1025D000047680F820400903C1620125C5614FF0EF
:1025E000C061C460816280F830404561FEF736FC0E
:1025F00008B1FEF7BAFA0420CDE900056946029455
:102600000448FEF7B5FA002801D0FEF7AEFA7FBD08
:102610000020014080000020094808B5016841F40D
:10262000001101600068002200F4001000901146C3
:102630000D20FEF7C9FFBDE808400D20FEF7B6BF2C
:10264000303802402DE9F04186B014216846FDF78C
:10265000EFFD32480024016841F01001016001687B
:1026600001F010010591016841F0800101600168ED
:1026700001F080010591016841F0010101600168EC
:1026800001F001010591016841F004010160016858
:1026900001F004010591016841F008010160016841
:1026A00001F008010591016841F002010160006834
:1026B0001B4E00F002000590002204213046FEF778
:1026C0000DFF184F002211213846FEF707FFDFF8F3
:1026D0005880002288214046FEF700FF0420009029
:1026E0000125CDE90154694630460394FEF71AFEF0
:1026F00011200090CDE90154694638460394FEF755
:1027000011FE88200090CDE90154694640460394AB
:10271000FEF708FE06B0BDE8F08100003038024048
:1027200000100240000C02400004024010B586B0C8
:1027300000241748009401940294039404944FF0E9
:1027400080410594016040F23F51C0E901144FF20D
:102750002341C0E903148461FFF75EFA08B1FEF774
:1027600004FA4FF48050009069460948FFF7D0FA08
:1027700008B1FEF7FAF92020CDE9040404A90448C1
:10278000FFF702FA002801D0FEF7EFF906B010BDFE
:10279000C800002010B586B00024164800940194AB
:1027A00002940394049412490594C0E9001440F281
:1027B0009B31C0E9024104618461FFF72DFA08B141
:1027C000FEF7D3F94FF48050009069460948FFF7AF
:1027D0009FFA08B1FEF7C9F9049404A905480594C5
:1027E000FFF7D2F9002801D0FEF7BFF906B010BDFF
:1027F000000400400801002010B586B000241848ED
:102800000594049400940194029414490394016083
:102810005321C0E90114611EC0E903148461FFF76C
:10282000CCFB08B1FEF7A1F9049404A90C48059467
:10283000FFF7AAF908B1FEF798F90120CDE90040A9
:1028400002940022694606480394FFF727FB0028FC
:1028500001D0FEF78AF906B010BD0000000C004060
:10286000480100200C4810B50A4901604FF4E131DD
:102870004160002181600C22C160C0E904128161C5
:10288000C161FFF732FD002803D0BDE81040FEF71C
:102890006CB910BD004C004088010020FEE7704775
:1028A0007047704710B52E4C8EB02EA194ED100BD2
:1028B000684653EC102B00F01BFB6846FDF7C3FC89
:1028C00082B20A2369462C48FFF715FE0A20FEF75C
:1028D00017FD226929A1684600F00AFB6846FDF74A
:1028E000B2FC82B20A2369462348FFF704FE0A209D
:1028F000FEF706FD9FED270B53EC102B94ED0E0B0E
:1029000051EC100BFDF772FE06D224A0FDF79BFCE4
:1029100082B20A2321A105E024A0FDF794FC82B233
:102920000A2322A11448FFF7E6FD0A20FEF7E8FC7F
:10293000206A68B121A0FDF786FC82B20A231FA19C
:102940000D48FFF7D8FD0A20FEF7DAFC0EB010BDE7
:102950001FA0FDF778FC82B20A231DA1F0E700005A
:102960000000002054656D70203D202532662064F3
:102970006567726565200A00880100204D6F746FDD
:10298000725F506F73203D20256420646567726517
:1029900065200A000000000000002440446F6F72B0
:1029A000206973206F70656E200A0000446F6F729B
:1029B00020697320636C6F7365200A004175746F22
:1029C000204D6F6465206973204F4646200A000041
:1029D0004175746F204D6F6465206973204F4E20E0
:1029E0000A000000FEF786BD30B593B0302168467E
:1029F000FDF71EFC14210CA8FDF71AFC1948002550
:102A0000016841F080510160006800F08050119031
:102A10001548016841F4804101600068022400F417
:102A2000804011900120039010200490009406949F
:102A30000820CDE90750A820CDE9090407200B9014
:102A40006846FEF7DDFE0CA90F2081E831004FF447
:102A5000A0500F90E002109005210CA8FEF7E6FDB3
:102A600013B030BD40380240007000400548016896
:102A700041F47001016003494FF000608039086043
:102A80007047000088ED00E00148FFF745BB0000FB
:102A9000080100200148FFF73FBB0000480100206B
:102AA000F0B50268254C264D264E274F274B4FF098
:102AB000804CA04209D0604507D0A84205D0B04262
:102AC00003D0B84201D0984204D122F0700E4A6877
:102AD00042EA0E02A0421BD0604519D0A84217D08E
:102AE000B04215D0B84213D0984211D0184DA84228
:102AF0000ED0184DA8420BD0174DA84208D0174D44
:102B0000A84205D0164DA84202D0164DA84203D1C6
:102B100022F44075CA682A434D6922F080022A4394
:102B200002608A68C2620A688262A04201D098424A
:102B300001D10969016301214161F0BD000001403B
:102B40000004004000080040000C00400004014068
:102B5000004001400044014000480140001800408E
:102B6000001C00400020004010B501F01F030121AF
:102B7000046A99408C430462016A9A4011430162DD
:102B800010BD10B5846842EA032224F47F440A434E
:102B90002243826010BD826822F070020A4342F034
:102BA00007018160704710B5036A046A24F00104CC
:102BB0000462846924F0F00444EA021423F00A0257
:102BC0000A438461026210BD70B5046A24F00104F6
:102BD00004628469056A154EB04214D0B0F1804F8A
:102BE00011D0134EB0420ED0124EB0420BD0124E46
:102BF000B04208D0114EB04205D0114EB04202D0C2
:102C0000104EB04203D124F00304144301E044F019
:102C100001041A0724F0F00444EA126225F00A03C2
:102C200001F00A0119438261016270BD0000014098
:102C30000004004000080040000C00400004014077
:102C4000004001400018004010B5036A23F0100353
:102C500003628369046A23F4704343EA023224F076
:102C6000A00343EA01118261016210BD30B5046A1C
:102C700024F0100404628469056A24F4407444EA70
:102C8000022222F470444FF6FF7202EA033222431A
:102C9000A02425F0A00304EA011119438261016216
:102CA00030BD70B5846B2068406994F83910C0F36A
:102CB000C0100025212904D118B1E584204600F078
:102CC00046F82068406994F83A10C0F38010222931
:102CD00004D118B1E585204600F02BF8E06B40F0F8
:102CE0001000E0632046FFF7FFFA70BD10B5014603
:102CF000806B09680968C90513D40021C185016882
:102D0000CA6822F48072CA6001684A6922F001022E
:102D10004A6101684A6922F040024A61202180F834
:102D20003A10FFF7C7FB10BD10B5806BFFF7E2FB51
:102D300010BD0168CA6822F49072CA6001684A69CD
:102D400022F001024A61202180F83A1070470168A0
:102D5000CA6822F0C002CA60202180F8391070478A
:102D60002DE9F041044600680169E26821F4405110
:102D7000114301612169A068E26908436169114357
:102D800008432168CA6849F20C639A430243CA6047
:102D900020684169A26921F4407111434161E069F1
:102DA000192764253226B0F5004F354A3549206889
:102DB0004FF0000806D0884201D0904236D1FEF78D
:102DC000DFFC35E0884201D0904202D1FEF7D8FC0A
:102DD00001E0FEF7C5FC61684A18A0FB070148EB5B
:102DE0000803FDF7EDF90146B0FBF5F00201B1FB78
:102DF000F5F06FF01803584301EB800006EBC000BC
:102E0000B0FBF5F000F0F80002EB4002B1FBF5F08A
:102E1000584301EB800006EBC000B0FBF5F000F07A
:102E20000700216810448860BDE8F081FEF798FC37
:102E300061688B0F8A00A0FB0701FDF7C1F901460D
:102E4000B0FBF5F06FF01802504301EB800006EB89
:102E50000010B0FBF5F000F0F002B1FBF5F002EB72
:102E60000012B1FBF5F06FF01803584301EB80003E
:102E700006EB0010B0FBF5F000F00F00D1E700000A
:102E800000140140001001402DE9F041984617461A
:102E90000E460446069D1DE0681C1BD02DB1FEF7B2
:102EA00023FBA0EB0800A84214D92068C16821F4D4
:102EB000D071C1602068416921F001014161202089
:102EC00084F8390084F83A00002084F838000320A0
:102ED000BDE8F0812068006836EA000004D00020D8
:102EE000B842D9D00020F3E70120F9E7FEE700005F
:102EF0000FB4084B10B504A902AA039800F0EEF82D
:102F0000044602A9002000F080FC204610BC5DF8B9
:102F100014FB00000B3800080907090E002804DB29
:102F200000F1E02080F80014704700F00F0000F17D
:102F3000E02080F8141D704702E008C8121F08C185
:102F4000002AFAD170477047002001E001C1121F2A
:102F5000002AFBD1704700002DE9FF5F82B00021FD
:102F6000DDE90430020DDDF840B0034318D044F62B
:102F70001050A2F2FF3242431514119801281FD0BD
:102F8000A5EB0B00401C5FEA000A4FF000064E4F15
:102F9000DFF83891B046504615D5CAF1000413E069
:102FA000119801244AA3012801D16FEA0B0102986C
:102FB000119AC0E90031C0E9024206B0BDE8F09FB5
:102FC000CBF10000DFE704460021404A491842EBFC
:102FD0000450CDE9001012E0E00707D032463B462E
:102FE00040464946FDF7EBF98046894632463B4666
:102FF00010461946FDF7E3F906460F466410002C0B
:10300000EAD1DDE90401DDE90023BAF1000F06DAB7
:10301000FDF7D5F942464B46FDF7D1F905E0FDF73E
:1030200040FA42464B46FDF73CFA04460E46002263
:10303000284BFDF7DBFA03D84FF0FF30014607E0DD
:103040000022254B20463146FDF712F9FDF7DDFB46
:10305000102409E0002C0ADB0A220023FDF7B0F857
:10306000039B30321A55641E50EA0102F2D1641CEF
:10307000039AC4F111031444119A012A03D00122C6
:1030800008430DD10AE0084304D000204FF0110B93
:10309000119072E7A3EB0B056D1E0DE05B4504DD9F
:1030A0004FF0000205F1010504E003DA4FF00002E1
:1030B000A5F10105002AECD002981199C0E902316E
:1030C000C0E9004579E70000000014400000F03F2F
:1030D000300000000000F0430000E03F2DE9FF4F0A
:1030E00095B09B468946064600250FE2252877D1F4
:1030F00000242746F84A0121059400E0044316F80D
:10310000013F203B01FA03F01042F7D130782A2822
:1031100011D06FF02F033078A0F13002092A16D8B1
:10312000059A44F0020402EB820203EB42021044CF
:10313000761C0590EFE759F8042B0592002A03DA74
:10314000504244F40054059044F00204761C307858
:103150002E2816D116F8010F44F004042A280DD0A9
:103160006FF02F023078A0F13003092B09D807EB5C
:10317000870302EB4303C718761CF3E759F8047B77
:10318000761C30786C280FD006DC4C2817D06828C5
:103190000DD06A2814D104E0742810D07A280FD1F9
:1031A0000DE044F400140AE044F4801401E044F417
:1031B00040147278824202D104F58014761C761C89
:1031C000307866280BD013DC582877D009DC00282B
:1031D00075D04528F6D04628F4D047281AD19DE16D
:1031E00018E0632835D0642879D0652812D195E19C
:1031F000702873D008DC6728F1D069286FD06E285A
:103200000DD06F2806D1B5E073282CD0752875D065
:10321000782874D05A46179990476D1C75E1C4F30D
:103220000250022809D003280DD0D9F80010042834
:103230000DD00D6009F1040967E1D9F80010EA1713
:10324000C1E90052F6E7D9F800100D80F2E70D70E1
:10325000F0E719F8041B8DF8001000208DF801002C
:10326000EA46012003E059F804AB4FF0FF30610754
:103270004FF0000102D40DE008F101018846B94287
:103280000FDA8045F8DB1AF808100029F4D108E0BD
:1032900008F1010188468142FADB1AF8081000297A
:1032A000F6D105985B46A0EB080721463846179AE9
:1032B00000F094FA284400EB080507E04DE029E10E
:1032C0000DE01AF8010B5A4617999047B8F101081A
:1032D000F7D25B4621463846179A13E142E00A22AC
:1032E0000092C4F302524FF0000A022A08D059F8A3
:1032F00004CB032A4FEAEC710AD00DE029E02AE062
:1033000009F1070121F00702F2E802C1914609E044
:103310000FFA8CFC4FEAEC71042A03D14FFA8CFCB3
:103320004FEAEC71002907DA0A460021DCF1000CB3
:1033300061EB02012D2202E0220504D52B228DF83B
:103340000420012203E0E20701D02022F7E79046A3
:1033500059E00A2102E010220DE010214FF0000A8E
:1033600000910BE010224FF0000A44F004040827FB
:10337000009203E008224FF0000A0092C4F30252C8
:10338000022A05D059F804CB0021032A08D009E00D
:1033900009F1070121F00702F2E802C1914605E0B8
:1033A0001FFA8CFC042A01D10CF0FF0C4FF000082E
:1033B000220728D5702806D0009B83F0100353EA1B
:1033C0000A0305D00EE040228DF80420012208E017
:1033D0005CEA010206D030228DF804208DF8050049
:1033E00002229046009B83F0080353EA0A030AD1A5
:1033F0005CEA010201D1620705D530228DF8042074
:103400004FF001087F1E582804D034A003900EA866
:1034100002900DE036A0F9E753466046009AFCF7AB
:10342000CFFE84460398825C0298401E0290027090
:103430005CEA0100F0D1029806A9081A00F1200AFE
:10344000600702D524F4803400E00127574502DDEF
:10345000A7EB0A0000E0002000EB0A0100900598AD
:103460004144401A0590E00306D45B462146179A72
:10347000059800F0B3F90544002706E001A85A4674
:10348000C05D179990476D1C7F1C4745F6DBE00334
:103490000CD55B462146179A059800F09FF9054424
:1034A00004E030205A46179990476D1C0099481E39
:1034B00000900029F5DC08E0029802995A4600784D
:1034C000491C0291179990476D1CBAF10001AAF1AD
:1034D000010AF1DC65E100000928010030313233D6
:1034E0003435363738396162636465660000000040
:1034F000303132333435363738394142434445462A
:103500000000000000F058F90544761C30780028CF
:103510007FF4ECAD19B02846BDE8F08F620700D407
:10352000062709F1070222F0070CFCE80223E14616
:1035300003F000485FEA080C02D00FF2702C0DE097
:103540005FEA045C02D50FF2682C07E05FEAC47CF6
:1035500002D00FF2602C01E0AFF2700C4FF0FF3898
:1035600023F00043CDF850C065280CD006DC452878
:1035700009D046281DD047283DD13DE0662818D007
:1035800067287ED138E00021112F01DB112000E0F7
:10359000781CCDE9000106A90EA8FFF7DDFCDDE9E6
:1035A0000F010E9A03910021009207F1010A049184
:1035B0004DE04FF000400097CDE9011006A90EA89C
:1035C000FFF7CAFCDDE90F0203920E9B119900225E
:1035D000DDF80CA00093049211B9791C00EB010AEC
:1035E000B7EB0A0004D4C0F1FF3007F1010A0490E0
:1035F000AAEB0700019044E0012F00DA0127002127
:10360000112F01DD112000E03846CDE9000106A9A7
:103610000EA8FFF7A1FCDDE90F010E9A039100212E
:1036200004910092BA4621070CD40399514500DA5F
:103630008A46BAF1010F05DD009AAAF10101515C39
:10364000302908D0B84202DA10F1040F06DA01215D
:10365000CDE9011015E0AAF10101E9E7002805DC38
:10366000049901440491AAEB000102E0411C514578
:1036700000DD8A460499401A401C01904FF000403A
:103680000290200704D40198504501DBCDF8048056
:1036900000208DF84F0002980DF14F07B0F1004F58
:1036A00025D02B200E9002984FF0020800280CDA4B
:1036B000404202902D200E9007E00A210298FCF76C
:1036C000C9FF3031029007F8011DB8F10001A8F1DF
:1036D0000108F2DC02980028EFD1791E0E980870DC
:1036E000307800F0200040F0450007F8020D12A8E5
:1036F000C01B00F107081498007800B1012000EB0E
:103700000A01019801EBE07105984144401A401EFE
:103710000590E00306D45B462146179A059800F011
:103720005DF805441498007818B15A4617999047E7
:103730006D1CE00324D55B462146179A059800F0DE
:103740004DF805441CE00498002807DBDDE903017F
:10375000884203DD0098405C179901E017993020FA
:103760005A469047049805F10105401C04900198C1
:10377000401E019004D12E205A46179990476D1C87
:10378000BAF10001AAF1010ADDDC05E017F8010B2E
:103790005A46179990476D1CB8F10001A8F101082D
:1037A000F4DC5B462146179A0598ABE62D00000035
:1037B0002B000000200000002DE9F0410446002508
:1037C0001E461746880404D405E039462020B04739
:1037D0006D1C641EF9D52846BDE8F0812DE9F04145
:1037E000044600251E469046C80301D5302700E058
:1037F0002027880404D505E041463846B0476D1CB3
:10380000641EF9D52846BDE8F0810A68531C0B6098
:10381000107070472DED048BFDF774FEFFF7E4F890
:10382000FEF710FFFEF7F8FEFEF7C4FEFEF77EFF80
:10383000FEF7B0FFFEF7E0FFFFF714F85248FEF77F
:103840002FFA5248FDF76EFB012251495148FEF70D
:10385000E5FD9FED518BB1EE049ADFED519A514C8D
:1038600000254FF4877600BF00F0A2F83220FDF764
:1038700047FDE069012804D002280BD003284AD074
:1038800005E0FFF70FF80A20FDF73AFDE561206A31
:1038900010B143E0E5612562E56194ED0E0B53EC58
:1038A000182B51EC100BFCF789FE06D2206920B1D1
:1038B0000121206900F08CF82561B0EE480AF0EE95
:1038C000680A53EC102B94ED0E0B51EC100BFCF727
:1038D0008DFEC9D22D48FDF7F1F994ED100B53EC94
:1038E000102B9FED310B00BF51EC100BFCF761FD6D
:1038F000FCF794FE00EE100A84ED050AC0EE090AFA
:1039000020EEA90ABDEEC00A10EE100A6063606BDB
:10391000B04228DD1EE00120C4E907501B48E561E4
:10392000FDF7CCF9606AFCF72BFE94ED101B41EC1F
:10393000100B53EC112BD7E7606B2169401A002163
:1039400003E02069616B401A012100F041F8606BCF
:10395000206189E7606B00280EDA0121206900F000
:1039600037F8256180E7606B0028F3DB606B216925
:10397000401A0028E5DDDFE720690021C0F58770E7
:1039800000F026F826616FE7C800002080000020C4
:1039900058000020880100200000000000002440A2
:1039A00000008743000000200000000000003B40B2
:1039B00010B5012204210448FDF790FDBDE8104038
:1039C0000248FEF77FB90000001002400801002005
:1039D00070B50E4600281CD000EE100A9FED0D1A9F
:1039E0000E4DB8EEC00A0024C0EE010A9FED0A0A8F
:1039F00020EE800ABDEEC00A85ED0C0A06E03046D6
:103A000000F00EF80120FDF77BFC641C286B84425B
:103A1000F5DB70BD0000B4420000FA430000002056
:103A20002DE9F0413B4C80463B4E3C4DA0680327BE
:103A300030B101281AD002282FD0032842D14DE0FE
:103A4000012211463046FDF749FD0022802128461B
:103A5000FDF744FD002210213046FDF73FFD002216
:103A600008212846FDF73AFD012014E0002201213B
:103A70003046FDF733FD012280212846FDF72EFD5B
:103A8000002210213046FDF729FD0022082128469A
:103A9000FDF724FD0220E06014E000220121304601
:103AA000FDF71CFD002280212846FDF717FD0122AD
:103AB00010213046FDF712FD002208212846FDF7AF
:103AC0000DFDE760A068B8F1000F1DD0401EA0609A
:103AD00003281BDD0020A060BDE8F0810022012149
:103AE0003046FDF7FBFC002280212846FDF7F6FC5E
:103AF000002210213046FDF7F1FC01220821284662
:103B0000FDF7ECFC0420C6E7401CE0E70028E3DA00
:103B1000A760E1E700000020000C02400004024022
:103B2000000610160006101600000000000000003D
:103B30000102030406070809000000000102030453
:103B4000603B00080000002058000000382F0008EB
:103B5000B83B000858000020D0050000482F00089E
:103B60000000000000000000000000000000000055
:103B70000000000000000000000000000000000045
:103B8000000000001B00000000000000000000001A
:103B90000000000000000000000000000000000025
:103BA0000000000000000000010000001000000004
:083BB000000000000024F400F5
:040000050800018965
:00000001FF
